{
  "contractName": "Coin",
  "abi": [
    {
      "inputs": [],
      "stateMutability": "nonpayable",
      "type": "constructor"
    },
    {
      "inputs": [
        {
          "internalType": "uint256",
          "name": "requested",
          "type": "uint256"
        },
        {
          "internalType": "uint256",
          "name": "available",
          "type": "uint256"
        }
      ],
      "name": "InsufficientBalance",
      "type": "error"
    },
    {
      "anonymous": false,
      "inputs": [
        {
          "indexed": false,
          "internalType": "address",
          "name": "owner",
          "type": "address"
        },
        {
          "indexed": false,
          "internalType": "uint256",
          "name": "amount",
          "type": "uint256"
        }
      ],
      "name": "Minted",
      "type": "event"
    },
    {
      "anonymous": false,
      "inputs": [
        {
          "indexed": false,
          "internalType": "address",
          "name": "from",
          "type": "address"
        },
        {
          "indexed": false,
          "internalType": "address",
          "name": "to",
          "type": "address"
        },
        {
          "indexed": false,
          "internalType": "uint256",
          "name": "amount",
          "type": "uint256"
        }
      ],
      "name": "Sent",
      "type": "event"
    },
    {
      "inputs": [
        {
          "internalType": "address",
          "name": "",
          "type": "address"
        }
      ],
      "name": "balances",
      "outputs": [
        {
          "internalType": "uint256",
          "name": "",
          "type": "uint256"
        }
      ],
      "stateMutability": "view",
      "type": "function",
      "constant": true
    },
    {
      "inputs": [],
      "name": "minter",
      "outputs": [
        {
          "internalType": "address",
          "name": "",
          "type": "address"
        }
      ],
      "stateMutability": "view",
      "type": "function",
      "constant": true
    },
    {
      "inputs": [],
      "name": "totalSupply",
      "outputs": [
        {
          "internalType": "uint256",
          "name": "",
          "type": "uint256"
        }
      ],
      "stateMutability": "view",
      "type": "function",
      "constant": true
    },
    {
      "inputs": [
        {
          "internalType": "address",
          "name": "receiver",
          "type": "address"
        },
        {
          "internalType": "uint256",
          "name": "amount",
          "type": "uint256"
        }
      ],
      "name": "mint",
      "outputs": [],
      "stateMutability": "nonpayable",
      "type": "function"
    },
    {
      "inputs": [
        {
          "internalType": "address",
          "name": "receiver",
          "type": "address"
        },
        {
          "internalType": "uint256",
          "name": "amount",
          "type": "uint256"
        }
      ],
      "name": "send",
      "outputs": [],
      "stateMutability": "nonpayable",
      "type": "function"
    }
  ],
  "bytecode": "0x608060405234801561001057600080fd5b50336000806101000a81548173ffffffffffffffffffffffffffffffffffffffff021916908373ffffffffffffffffffffffffffffffffffffffff1602179055506106c8806100606000396000f3fe608060405234801561001057600080fd5b50600436106100575760003560e01c8063075461721461005c57806318160ddd1461007a57806327e235e31461009857806340c10f19146100c8578063d0679d34146100e4575b600080fd5b610064610100565b6040516100719190610437565b60405180910390f35b610082610124565b60405161008f919061046b565b60405180910390f35b6100b260048036038101906100ad91906104b7565b61012a565b6040516100bf919061046b565b60405180910390f35b6100e260048036038101906100dd9190610510565b610142565b005b6100fe60048036038101906100f99190610510565b610246565b005b60008054906101000a900473ffffffffffffffffffffffffffffffffffffffff1681565b60015481565b60026020528060005260406000206000915090505481565b60008054906101000a900473ffffffffffffffffffffffffffffffffffffffff1673ffffffffffffffffffffffffffffffffffffffff163373ffffffffffffffffffffffffffffffffffffffff161461019a57600080fd5b80600260008473ffffffffffffffffffffffffffffffffffffffff1673ffffffffffffffffffffffffffffffffffffffff16815260200190815260200160002060008282546101e9919061057f565b925050819055508060016000828254610202919061057f565b925050819055507f30385c845b448a36257a6a1716e6ad2e1bc2cbe333cde1e69fe849ad6511adfe828260405161023a9291906105d5565b60405180910390a15050565b600260003373ffffffffffffffffffffffffffffffffffffffff1673ffffffffffffffffffffffffffffffffffffffff1681526020019081526020016000205481111561030b5780600260003373ffffffffffffffffffffffffffffffffffffffff1673ffffffffffffffffffffffffffffffffffffffff168152602001908152602001600020546040517fcf4791810000000000000000000000000000000000000000000000000000000081526004016103029291906105fe565b60405180910390fd5b80600260003373ffffffffffffffffffffffffffffffffffffffff1673ffffffffffffffffffffffffffffffffffffffff168152602001908152602001600020600082825461035a9190610627565b9250508190555080600260008473ffffffffffffffffffffffffffffffffffffffff1673ffffffffffffffffffffffffffffffffffffffff16815260200190815260200160002060008282546103b0919061057f565b925050819055507f3990db2d31862302a685e8086b5755072a6e2b5b780af1ee81ece35ee3cd33453383836040516103ea9392919061065b565b60405180910390a15050565b600073ffffffffffffffffffffffffffffffffffffffff82169050919050565b6000610421826103f6565b9050919050565b61043181610416565b82525050565b600060208201905061044c6000830184610428565b92915050565b6000819050919050565b61046581610452565b82525050565b6000602082019050610480600083018461045c565b92915050565b600080fd5b61049481610416565b811461049f57600080fd5b50565b6000813590506104b18161048b565b92915050565b6000602082840312156104cd576104cc610486565b5b60006104db848285016104a2565b91505092915050565b6104ed81610452565b81146104f857600080fd5b50565b60008135905061050a816104e4565b92915050565b6000806040838503121561052757610526610486565b5b6000610535858286016104a2565b9250506020610546858286016104fb565b9150509250929050565b7f4e487b7100000000000000000000000000000000000000000000000000000000600052601160045260246000fd5b600061058a82610452565b915061059583610452565b9250827fffffffffffffffffffffffffffffffffffffffffffffffffffffffffffffffff038211156105ca576105c9610550565b5b828201905092915050565b60006040820190506105ea6000830185610428565b6105f7602083018461045c565b9392505050565b6000604082019050610613600083018561045c565b610620602083018461045c565b9392505050565b600061063282610452565b915061063d83610452565b9250828210156106505761064f610550565b5b828203905092915050565b60006060820190506106706000830186610428565b61067d6020830185610428565b61068a604083018461045c565b94935050505056fea26469706673582212202a3e8e9b73b7a4493316a02b655f9586956abcf52f7ae386ebad50d65a2f6fe064736f6c634300080b0033",
  "immutableReferences": {},
  "source": "pragma solidity >=0.4.22 <0.9.0;\n\ncontract Coin {\n    address public minter;\n    uint public totalSupply;\n\n    mapping(address => uint) public balances;\n\n    event Sent(address from, address to, uint amount);\n    event Minted(address owner, uint amount);\n\n    constructor() {\n        minter = msg.sender;\n    }\n\n    function mint(address receiver, uint amount) public {\n        require(msg.sender == minter);\n        balances[receiver] += amount;\n        totalSupply += amount;\n\n        emit Minted(receiver, amount);\n    }\n\n    error InsufficientBalance(uint requested, uint available);\n\n    function send(address receiver, uint amount) public {\n        if (amount > balances[msg.sender]) {\n            revert InsufficientBalance({\n                requested: amount,\n                available: balances[msg.sender]\n            });\n        }\n\n        balances[msg.sender] -= amount;\n        balances[receiver] += amount;\n        emit Sent(msg.sender, receiver, amount);\n    }\n}",
  "sourcePath": "/Users/eclesiojunior/go/src/github.com/EclesioMeloJunior/go-solidity/contracts/Coin.sol",
  "compiler": {
    "name": "solc",
    "version": "0.8.11+commit.d7f03943.Emscripten.clang"
  },
  "schemaVersion": "3.4.4",
  "updatedAt": "2022-01-22T19:32:44.312Z",
  "networkType": "ethereum",
  "devdoc": {
    "kind": "dev",
    "methods": {},
    "version": 1
  },
  "userdoc": {
    "kind": "user",
    "methods": {},
    "version": 1
  }
}